:020000040800F2
:10000000700400209D010008DB1A0008C9160008D2
:10001000D91A000811080008711B00080000000030
:10002000000000000000000000000000DF1A0008CF
:100030001308000800000000DD1A0008E11A00089B
:10004000B7010008B7010008B7010008B7010008B0
:10005000B7010008B7010008B7010008B7010008A0
:10006000B7010008B7010008B7010008B701000890
:10007000B7010008B7010008B7010008B701000880
:10008000B7010008B7010008B7010008B701000870
:10009000B7010008B7010008B7010008B701000860
:1000A000B7010008B7010008B7010008B701000850
:1000B000B7010008B7010008B7010008B701000840
:1000C000B7010008B7010008B7010008B701000830
:1000D000B7010008B7010008B7010008B701000820
:1000E000B7010008B7010008B7010008B701000810
:1000F000B7010008B7010008B7010008B701000800
:10010000B7010008B7010008B7010008B7010008EF
:10011000B7010008B7010008B7010008B7010008DF
:10012000B7010008B7010008B7010008B7010008CF
:10013000B70100080000000000000000B70100083F
:10014000B7010008B7010008B7010008B7010008AF
:10015000B7010008B7010008B7010008B70100089F
:10016000B7010008B7010008B7010008B70100088F
:10017000B7010008B70100080000000000000000FF
:10018000B7010008B7010008DFF80CD000F01CFB35
:100190000048004799240008700400200648804762
:1001A00006480047FEE7FEE7FEE7FEE7FEE7FEE75C
:1001B000FEE7FEE7FEE7FEE7551B000889010008A1
:1001C0002DE9F05F0546002092469B46884606468C
:1001D000814640241BE0284641464746224600F01F
:1001E00009F953465A46C01A914110D31146184690
:1001F000224600F0F0F82D1A67EB01084F46224620
:100200000120002100F0E7F817EB00094E41201E05
:10021000A4F10104DFDC484631462A464346BDE8E6
:10022000F09FD2B201E000F8012B491EFBD27047CB
:100230000022F6E710B513460A4604461946FFF7B2
:10024000F0FF204610BD2DE9FE4F81EA030404F0C3
:10025000004421F0004100944FF0000B23F00043D4
:1002600050EA01045ED052EA03045BD0C3F30A549F
:10027000C1F30A552C44A4F2F3340194A0FB0254B8
:10028000C1F3130141F48011C3F3130343F480134A
:1002900001FB024400FB034E840A970A44EA81549E
:1002A00047EA8357A4FB076802958D0A05FB07857B
:1002B0004FEA932C04FB0C542705029D4FEA065885
:1002C00047EA1637B5EB08056EEB070C870E920E62
:1002D00047EA811742EA8312A7FB0201B6EB0B0142
:1002E00064EB00042B0D43EA0C335E1844EB1C5006
:1002F000DA465146E7FB0201C5F313044FEA0B331C
:1003000043EA14534FEA0432019C43EA0603A4F182
:100310000C040294009CCDE900B400F0C1F803B0D5
:10032000BDE8F08F00200146F9E70EB5C10F80EA65
:10033000E0700844CA07002140F233438DE80E0004
:100340000A460B4600F0ACF803B000BD00F00042D6
:1003500030F000400AD0C10D01F56071C0F3160005
:1003600042EA0151C208400711437047002001468C
:10037000704701F0004330B421F0004150EA01021F
:1003800006D00A0DA2F56072C1F31301002A02DC47
:1003900030BC00207047440F44EAC104C100E0189B
:1003A00030BC00EBC25000F035B830B50B4601460A
:1003B00000202022012409E021FA02F59D4205D304
:1003C00003FA02F5491B04FA02F52844151EA2F1AE
:1003D0000102F1DC30BD202A04DB203A00FA02F1F0
:1003E000002070479140C2F1200320FA03F3194323
:1003F00090407047202A04DB203A21FA02F00021C5
:10040000704721FA02F3D040C2F120029140084324
:10041000194670470029A8BF7047401C490008BF13
:1004200020F00100704710B4B0FA80FC00FA0CF024
:1004300050EA010404BF10BC704749B1CCF120045C
:1004400021FA04F411FA0CF118BF012121430843E9
:10045000A3EB0C01CB1D4FEA00614FEA102042BF15
:10046000002010BC704700EBC35010440029A4BF0B
:1004700010BC7047401C490008BF20F0010010BCB0
:10048000704710B5141E73F1000408DA401C41F1E6
:10049000000192185B411A4301D120F0010010BD08
:1004A0002DE9F04D92469B4611B1B1FA81F202E07E
:1004B000B0FA80F220329046FFF78DFF04460F46D7
:1004C00040EA0A0041EA0B0153465A46084313D05A
:1004D000114653EA010019D0C8F140025046FFF717
:1004E00089FF05460E46504659464246FFF773FFC0
:1004F000084305D0012004E020463946BDE8F08DD0
:100500000020054346EAE0762C4337430A9863050A
:10051000E40AA0EB08000022FD0A44EA47540A302E
:1005200002D500200146E9E7010510196941DDE91E
:10053000084500196941BDE8F04DA2E72DE9FE4FDD
:10054000804681EA0300C00F0C46009021F0004174
:1005500023F00045B8EB0200A94105D240462146F0
:1005600090461C460B46024623F00040104347D0FD
:10057000270DC7F30A00C3F30A510290401A0190F5
:1005800040286BDAC3F3130040F4801B00989246B6
:1005900020B10023D2EB030A63EB0B0B0198594601
:1005A000C0F140025046FFF716FF06460D46504682
:1005B0005946019A00F01AF910EB08006141002435
:1005C00087EA115284EAE7731A4340D0009A62B373
:1005D000019A012A4FEA075215DC001B61EB020168
:1005E0004FF0004202EA0752CDE90042001C41F5FB
:1005F000801132462B46FFF753FF03B0BDE8F08F62
:1006000040462146F9E7001B61EB0201001C41F561
:10061000801300185B412018A2F5001747EB030177
:1006200040EAD570B6196D4111E06D084FEA360603
:1006300045EAC0754FEA0752001B61EB0201001C3E
:1006400041F5801149084FEA300000195141324606
:100650002B4603B0BDE8F04FFFF713BF009801220F
:1006600040000023D0EB020263EBE07300982146C8
:100670004FEAE074B8EB000061EB0401E9E783F0B6
:1006800000435BE781F0004158E72DE9F04D81EA36
:10069000030404F0004B21F0004514464FF0000A1B
:1006A00023F0004150EA050220D054EA01021DD097
:1006B000C5F30A570246C5F31303C1F31300C1F390
:1006C0000A5640F4801543F48013A7EB0608101B6C
:1006D000D64608F2FD3873EB050002D308F1010895
:1006E00001E092185B41B8F1000F03DA00200146E7
:1006F000BDE8F08D00204FF48011064684460EE0E0
:10070000171B73EB050705D3121B63EB05030643A9
:100710004CEA010C49084FEA300092185B4150EA5C
:100720000107EDD152EA030012D082EA040083EA05
:100730000501084305D0101BAB4106D2012200235E
:1007400006E000224FF0004302E06FF00102531078
:100750001AEB06004CEB085110EB0A0041EB0B01C1
:10076000BDE8F04DFFF78DBEC1F30A52C1F313018E
:1007700040F2FF3341F480119A4202DA0020014630
:10078000704740F233439A42A2F2334202DC5242B3
:10079000FFF730BEFFF71FBE30B5041E71F1000435
:1007A00004DB4FF00044404264EB0101141E73F17E
:1007B000000405DB1C464FF00043524263EB040388
:1007C000994208BF904230BD064C074D06E0E068F4
:1007D00040F0010394E8070098471034AC42F6D388
:1007E000FFF7D6FC84250008A4250008202A06DB94
:1007F000CB17203A41FA02F043EAE07306E041FAEF
:1008000002F3D040C2F120029140084319467047DC
:10081000FEE7704770B5044600F0F0F80546601C2E
:1008200002D004480078044400F0E8F8401BA042DD
:10083000FAD370BD040000202DE9F84F00224FF0DC
:10084000010803254FF00F0E0B6808FA02F423404D
:10085000A3426ED14E68012E05D0022E03D0112E78
:1008600001D0122E12D186684FEA420C05FA0CF71D
:10087000BE43CF6807FA0CF7374387604668A64344
:100880000C79C4F30014944034434460C6685700A4
:1008900005FA07FC8C6826EA0C06BC403443C460A9
:1008A0004C68022C01D0122C13D1D40800EB840424
:1008B000A346D4F8209054074FEAD46A0EFA0AF6F9
:1008C00029EA06090E6906FA0AF646EA0906CBF88D
:1008D000206006680C7926EA0C0604F00304BC408C
:1008E000344304604C68E40065D5364C266846F411
:1008F00080462660246822F0030604F480440094B5
:10090000314C3444A446D4F808489607370F0EFA01
:1009100007F6B4432D4EB04201D1002624E02C4E00
:10092000B04201D101261FE02A4EB04202D1022678
:100930001AE040E0284EB04201D1032614E0274ED1
:10094000B04201D104260FE0254EB04201D1052668
:100950000AE0244EB04201D1062605E0224EB04204
:1009600001D1072600E00826BE402643CCF80868DF
:100970001E4E34684F689C43FF0300D51C4334600F
:100980001A4C241D26684F689E43BF0300D51E43A2
:100990002660164E083634684F689C43FF0200D527
:1009A0001C433460114E0C3634684F689C43BF02C0
:1009B00000D51C433460521C102AFFF445AFBDE83B
:1009C000F88F00004438024000300140000002402F
:1009D0000004024000080240000C024000100240E7
:1009E0000014024000180240001C0240003C01407C
:1009F0000AB1816170470904FBE700000148806883
:100A0000704700000400002070B5040025D094F861
:100A10003D00002520B984F83C50204600F0F4FA4F
:100A2000242084F83D002068016821F00101016064
:100A30002068016841F4004101602068016821F4E8
:100A40000041016000F03CFC4D4A6168914201D8D0
:100A50004C4900E04C49884201D2012070BD4B490D
:100A60002368B0FBF1F15E6826F03F060E435E603E
:100A70006368934206D94FF4967359434FF47A73DF
:100A8000B1FBF3F12368491C1E6A26F03F0631438F
:100A900019626168914210D84900401EB0FBF1F222
:100AA000521CC2F30B02042A01D2042022E0B0FB44
:100AB000F1F0401CC0F30B001CE0A268F2B301EBA4
:100AC000C10303EB0116431EB3FBF6F35B1C43F4B7
:100AD00080431B0549D092B301EBC10202EB011127
:100AE000401EB0FBF1F0401CC0F30B0040F480400E
:100AF00040F400402168CA694CF6FF739A431043E2
:100B0000C861D4E9071001432068026822F0C002DE
:100B100011430160D4E9030101432068826848F26F
:100B2000FF339A4311438160D4E9050108432168EA
:100B3000CA6822F0FF021043C86001E00EE016E030
:100B40002068016841F0010101602564202084F8DB
:100B50003D00256384F83E50002070BD01EB410646
:100B6000431EB3FBF6F35B1CB3E70120C2E701EBC6
:100B70004101401EB0FBF1F0401CC0F30B00B7E791
:100B8000A086010080841E0000093D0040420F0045
:100B90002DE9FF4F81B089460446FFF72FFF054638
:100BA00094F83D004FF0010820287DD1192301223F
:100BB00050492046009500F089FE002874D194F831
:100BC0003C00012870D0012084F83C0020680168B6
:100BD000C90703D1016841F0010101602068016883
:100BE00021F400610160242084F83D000026266481
:100BF0004148E0624FF0011B20272068016841F462
:100C0000807101600095002259462046049B00F047
:100C10005DFE50B120680068C00502D54FF4007039
:100C20002064032005B0BDE8F08F216809F0FE00C4
:100C30000861FFF7E3FE2168054648694969C0F38A
:100C40004000C1F380214FF0A00A0FE0FFF7D6FE6D
:100C5000411B0498814200D808B984F83DA021685E
:100C600048694969C0F34000C1F3802194F83D20F0
:100C7000A02A02D008B90029E8D084F83D70206885
:100C80004169C943890716D4016841F400710160C4
:100C90002068416980691923012216492046009580
:100CA00000F014FEB8B900E021E084F83D7084F84B
:100CB0003C600020B6E7016841F4007101602168E2
:100CC0006FF480604861192301220A49204600958B
:100CD00000F0FCFD08B10120A4E7039808F1010829
:100CE00080458AD384F83D7084F83C60F3E70220A5
:100CF00098E70000020010000000FFFF2DE9F84F08
:100D00001F4690468A460446DDF82890FFF776FE97
:100D1000054694F83D00202875D1192301226C491D
:100D20002046009500F0D2FD0028F5D194F83C0053
:100D3000012868D0012084F83C0020680168C907B8
:100D400003D1016841F0010101602068016821F4CC
:100D500000610160222084F83D00102084F83E00EC
:100D600000262664C4F824806785608D2085594854
:100D7000E0622B464A465146204600F0BDFC002862
:100D800078D1208D544F68B1012814D002282068F2
:100D9000016816D041F48061016020684169806972
:100DA000009087E02068416981690091016841F401
:100DB000007101607EE02068016821F480610160BB
:100DC000F0E721F4806101602068016841F400616E
:100DD000E2E7032848D801280AD0022814D04B465D
:100DE000002239462046009500F070FDD8BB27E070
:100DF0002A464946204600F0E8FDA0BB206800696D
:100E0000616A08704DE061E04B4600223946204699
:100E1000009500F05BFD30BB2068016841F4007173
:100E2000016020680069616A0870606A401C606245
:100E3000218D491E2185618D491E618521682EE025
:100E40002068016821F48061016020680069616A9E
:100E50000870606A401C6062208D401E2085608D95
:100E6000401E6085D0E705E02A464946204600F04E
:100E7000ACFD10B10120BDE8F88F20680069616AFF
:100E80000870606A401C6062218D491E2185618D59
:100E9000491E618521684A69D24352070AD409690B
:100EA0000170606A401C6062208D401E2085608D4C
:100EB000401E6085208D00288BD1202084F83D00C5
:100EC00084F83E6084F83C600020D4E70220D2E73A
:100ED000020010000000FFFF040001002DE9F84FA0
:100EE0001F4690468A460446DDF82890FFF786FDA7
:100EF000054694F83D0020287FD11923012240495E
:100F00002046009500F0E2FC002876D194F83C00E1
:100F1000012872D0012084F83C0020680168C907CC
:100F200003D1016841F0010101602068016821F4EA
:100F300000610160212084F83D00102084F83E000B
:100F400000262664C4F824806785608D20852D489E
:100F5000E0622B464A465146204600F043FC90B9D9
:100F6000206841698069009036E02A46494620465B
:100F700000F05EFD50B1206C042804D120680168A7
:100F800041F4007101600120BDE8F88F606A2168BA
:100F900000780861606A401C6062618D491E61854D
:100FA000218D491E89B2218522685369DB435B0785
:100FB0000BD451B100781061606A401C6062608D92
:100FC000401E6085208D401E20852A4649462046C9
:100FD00000F056FC0028CED1208D0028C5D154F851
:100FE0003D0B016841F400710160202004F81E09E6
:100FF000E67766770020C7E7FFE70220C4E7000036
:10100000020010000000FFFF10B586B00446142156
:101010006846FFF70DF914492068884221D113482A
:10102000016841F0020101600068694600F00200B9
:1010300005904FF440600090122001900120029032
:1010400003200390042004900948FFF7F5FB0748AC
:101050001030016841F480010160006800F48000F4
:10106000059006B010BD0000005800403038024026
:101070000004024002488168027811448160704790
:10108000040000200B4810B5016841F400710160B4
:10109000016841F480610160016841F48071016080
:1010A000032000F061F8002000F006F800F024F8BA
:1010B000002010BD003C024070B50D4D04464FF4B9
:1010C0007A712878B1FBF0F00A490968B1FBF0F0B9
:1010D00000F0E6FA48B9102C07D200222146501E33
:1010E00000F022F800206C6070BD012070BD00008F
:1010F00004000020100000200A4808B5016841F4EF
:1011000080410160006800F4804000900548001FA5
:10111000016841F080510160006800F0805000904B
:1011200008BD000044380240F0B40E4B1B680C466A
:10113000C3F30223C3F10705042D00D90425191DAB
:10114000072901D2002300E0DB1E012606FA05F183
:10115000491E214099409E40761E16403143F0BC06
:1011600000F018BD0CED00E0064900F00702086829
:101170004FF6FF03184040EA0220034A104308607C
:10118000704700000CED00E00000FA052DE9F04783
:101190000E46050065D0DFF81481D8F80000F7B2DC
:1011A00000F00F00B04207D288F80070D8F80000B5
:1011B00000F00F00B04254D128683D4C810712D591
:1011C000400703D5206840F4E050206028780007ED
:1011D00003D5206840F4604020602068A96820F0B2
:1011E000F000084320602878C0072DD03049686897
:1011F0000839012812D0022813D0032811D0096819
:10120000890700292DDA216821F0030101432160BB
:10121000FFF7F4FB814641F2883A0EE00968890342
:10122000EFE709688901ECE7FFF7E8FBA0EB0901AC
:10123000514502D90320BDE8F0872068696800F0B5
:101240000C00B0EB810FEFD1D8F80010404601F050
:101250000F01B14207D90770006800F00F00B042DB
:1012600001D00120E7E72878400705D52068E96824
:1012700020F4E050084320602878000706D5206855
:10128000296920F4604040EAC100206000F028F89D
:101290002168084AC1F30311515CC840064908603F
:1012A00006480068FFF708FF0020C4E7003C024042
:1012B000083802406C2500081000002008000020BB
:1012C0000448054900680968044AC1F38221515C59
:1012D000C840704710000020083802407C250008F4
:1012E000154810B5006810F00C02144813D01449CA
:1012F000042A0FD0082A0ED10F4C241F226823681D
:1013000002F03F025B0207D52068C0F38810A0FB03
:10131000010106E0084610BD2168C1F38811A1FB58
:1013200000010023FEF74CFF2168C1F30141491C75
:101330004900B0FBF1F010BD083802400024F40071
:1013400040787D012DE9F84F040076D02078DFF851
:1013500038A3CE4DC00749D0DAF800105046C1F38B
:101360008101012908D00068C0F3810002280AD158
:10137000281D0068400206D52868800336D56068BD
:101380000028E2D032E06068B0F5803F10D0B0F5C0
:10139000A02F286810D020F480302860286820F41E
:1013A000802028606068A0B1FFF728FB06460CE0AB
:1013B000286840F48030F4E740F480202860F7E7A4
:1013C000FFF71CFB801B642873D828688003F7D5BF
:1013D0000CE0FFF713FB064605E000BFFFF70EFB2E
:1013E000801B6428F0D828688003F7D42078DFF8C1
:1013F000A08280074FF000093ED5DAF80010504671
:1014000011F00C0F09D00068C0F3810002280BD145
:101410009D48001F0068400206D42868800715D543
:10142000E068012809D111E0E068B8B10120C8F8EE
:101430000000FFF7E3FA064605E020E1FFF7DEFAD9
:10144000801B0228C0D828688007F7D52868216942
:1014500020F0F80040EAC10028600DE0C8F80090D4
:10146000FFF7CCFA064604E0FFF7C8FA801B022813
:101470001FD828688007F7D42078000722D5824E2D
:10148000844861696C3671B101210160FFF7B6FAD9
:10149000074604E0FFF7B2FAC01B022809D83068FB
:1014A0008007F7D50EE0C0F80090FFF7A7FA0746CF
:1014B00005E082E0FFF7A2FAC01B02287DD8306861
:1014C0008007F7D42078400768D5DFF8BCB1002743
:1014D0000BF1380BDBF80000C0000BD4DBF8001078
:1014E00041F08051CBF80010DBF80000012700F03C
:1014F00080500090684E3068C00510D4306840F4C9
:1015000080703060FFF77AFA009005E0FFF776FA16
:101510000099401A022850D83068C005F6D55A4EB6
:10152000A068683601280FD00528306810D020F058
:1015300001003060306820F004003060A068B8B16D
:10154000FFF75CFA00900FE0306840F00100F4E72C
:1015500040F004003060F7E7FFF750FA0099411AB5
:1015600041F28830814266D830688007F4D50EE0B9
:10157000FFF744FA009007E0FFF740FA0099411A9C
:1015800041F28830814256D830688007F4D42FB1B8
:10159000DBF8001021F08051CBF80010A069D0B327
:1015A000DAF800205146C2F38102022A4AD002280A
:1015B000484607D0C8F8600000E03CE0FFF71EFA9C
:1015C00004463BE04746C8F86000FFF717FA0646B6
:1015D00005E000BFFFF712FA801B02282BD828680D
:1015E0008001F7D4D4E907010843A16A2B4A4908CE
:1015F00002EB0141626A41EA8211084394F82C101F
:1016000040EA01612048001F016001203866FFF7B1
:10161000F5F9044605E034E0FFF7F0F9001B022875
:1016200009D828688001F7D52BE000BFFFF7E6F95D
:10163000001B022802D90320BDE8F88F286880012A
:10164000F4D41EE00128F7D00868E26900F48001B4
:10165000914214D1226A00F03F0191420FD147F626
:10166000C071626A0140914209D1A26A00F440311E
:10167000914204D1E16A00F07060884201D00120FB
:10168000DAE70020D8E700000838024000380240BE
:1016900000004742800E4742007000400000FFFFFC
:1016A00010B5401EB0F1807F01D3012010BD4FF076
:1016B000E02460610F21601700F06CFA0020A06147
:1016C00007202061002010BDFEE701684A69D2436F
:1016D00052050FD46FF480624A61002140F8301F38
:1016E000202242738173026942F004020261017395
:1016F00001207047002070472DE9F84F0446C06A6A
:101700001E4693460D4621680A6842F480620A60CC
:10171000082807D0012805D010F5803F02D0206BA3
:10172000112804D12068016841F4807101604FF0F4
:1017300001195B46002249462046009600F0C6F893
:101740004FF4007840B120680068C00501D5C4F8A6
:1017500040800320BDE8F88F2069DFF884A0B0F551
:10176000804F0FD00620216800EAD51747F0F0001F
:10177000086133465A460AF10601204600F0DAF8BD
:1017800058BB03E0E8B240F001001CE02168E8B279
:10179000086133465A465146204600F0CBF8E0B97E
:1017A0002068416981690091016841F4807101609C
:1017B0005B46002249462046009600F087F8002844
:1017C000C1D147F0F1002168086133465A465146BD
:1017D000204600F0AFF80028BCD00120BAE7000096
:1017E00002000100F8B50446C06A1E460D461746C1
:1017F000082807D0012805D010F5803F02D0206BC3
:10180000122804D12068016841F4807101601346F8
:1018100000224FF001112046009600F057F840B129
:1018200020680068C00502D54FF4007020640320D2
:10183000F8BD2069B0F5804F0ED00620216800EA7F
:10184000D51040F0F000086133463A460B49204677
:1018500000F070F878B902E005F0FE0000E0E8B2B0
:1018600021680861054933463A46891F204600F041
:1018700061F80028DCD00120F8BD0000080001005C
:1018800070B516460D4604460DE02046FFF71DFFD5
:1018900008B1012070BD681C05D0FFF7AFF8801BB0
:1018A000A84207D835B120684069C0434007ECD44E
:1018B000002070BD002044F8300F20216173A07318
:1018C000216941F0200121612073E2E72DE9F04711
:1018D0001E4690460D460446C1F30747DDF82090AA
:1018E00008E0701C06D0FFF789F8A0EB0900B042B1
:1018F0000FD876B12068012F18D0806925EA000042
:101900000004000C14D000214145EAD00020BDE8BD
:10191000F087002044F8300F20216173A073216903
:1019200041F02001216120730120F0E74069E5E7E3
:101930000121E9E72DE9F0479A4691460E46044613
:1019400000254FF02008C1F3074725E020684069D3
:10195000C043400514D42068016841F4007101605F
:1019600021686FF480604861256384F83D8084F8C5
:101970003E50206C40F00400206484F83C501FE08E
:10198000B9F1FF3F08D0FFF739F8A0EB0A0149454C
:101990000CD8B9F1000F09D02068012F13D080694D
:1019A00026EA00000004000C0BD0CFE744F8305FBB
:1019B00084F80D80A573206940F020002061257314
:1019C0000120BDE8F0874069EAE72DE9F0410025F4
:1019D00090460E460446202717E04069C043C006E3
:1019E0000CD454F8301B6FF01000486144F81059C3
:1019F0006777A577206A2062257717E0FEF7FEFF5C
:101A0000A0EB0800B04208D83EB120684169C94344
:101A10004906E2D40020BDE8F08144F8305F6773E6
:101A2000A573206940F02000206125730120F2E7B2
:101A300070B516460D4604460DE02046FFF745FEFC
:101A400008B1012070BD681C05D0FEF7D7FF801BD0
:101A5000A84207D835B120684069C0430006ECD4DD
:101A6000002070BD002044F8300F20216173A07366
:101A7000216941F0200121612073E2E730B587B090
:101A800014216846FEF7D4FB11480024016841F098
:101A900004010160016801F004010591016841F051
:101AA0000201016000680B4D00F002000590224623
:101AB00006212846FEF79CFF01210620CDE90214ED
:101AC000CDE9000169462846FEF7B6FE07B030BDF5
:101AD0003038024000080240FEE770477047704708
:101AE000FFF7C8BA10B592B030216846FEF7A0FBE8
:101AF00014210CA8FEF79CFB14480024016841F057
:101B000080510160006800F0805011901048016819
:101B100041F4804101600068069400F48040119017
:101B20000220009001200390102004906846FFF7E7
:101B300009FC0F20CDE90C040E940F9400210CA891
:101B40001094FFF723FB12B010BD00004038024094
:101B5000007000400548016841F4700101600349CC
:101B60004FF00060803908607047000088ED00E0A9
:101B7000FEE700000FB4054B10B503A9044A029814
:101B800000F0EAF810BC5DF814FB000087240008A0
:101B9000140000200907090E002804DB00F1E020F2
:101BA00080F80014704700F00F0000F1E02080F88A
:101BB000141D704702E008C8121F08C1002AFAD19C
:101BC00070477047002001E001C1121F002AFBD1BD
:101BD000704700002DE9FF5F82B00021DDE904308D
:101BE000020DDDF840B0034318D044F61050A2F2C5
:101BF000FF3242431514119801281FD0A5EB0B00AA
:101C0000401C5FEA000A4FF000064E4FDFF83891A3
:101C1000B046504615D5CAF1000413E011980124CE
:101C20004AA3012801D16FEA0B010298119AC0E979
:101C30000031C0E9024206B0BDE8F09FCBF10000E0
:101C4000DFE704460021404A491842EB0450CDE941
:101C5000001012E0E00707D032463B4640464946B6
:101C6000FEF7F1FA8046894632463B461046194651
:101C7000FEF7E9FA06460F466410002CEAD1DDE9CA
:101C80000401DDE90023BAF1000F06DAFEF7DBFA02
:101C900042464B46FEF7D7FA05E0FEF7F6FC424611
:101CA0004B46FEF7F2FC04460E460022284BFEF798
:101CB00073FD03D84FF0FF30014607E00022254BAB
:101CC00020463146FEF73AFCFEF74EFD102409E0AF
:101CD000002C0ADB0A220023FEF772FA039B303243
:101CE0001A55641E50EA0102F2D1641C039AC4F131
:101CF00011031444119A012A03D0012208430DD183
:101D00000AE0084304D000204FF0110B119072E755
:101D1000A3EB0B056D1E0DE05B4504DD4FF00002EB
:101D200005F1010504E003DA4FF00002A5F1010519
:101D3000002AECD002981199C0E90231C0E90045AF
:101D400079E70000000014400000F03F3000000080
:101D50000000F0430000E03F2DE9FF4F95B09B46A7
:101D60008946064600250FE2252877D1002427461C
:101D7000F84A0121059400E0044316F8013F203B96
:101D800001FA03F01042F7D130782A2811D06FF011
:101D90002F033078A0F13002092A16D8059A44F0B2
:101DA000020402EB820203EB42021044761C05900F
:101DB000EFE759F8042B0592002A03DA504244F465
:101DC0000054059044F00204761C30782E2816D179
:101DD00016F8010F44F004042A280DD06FF02F02EA
:101DE0003078A0F13003092B09D807EB870302EB09
:101DF0004303C718761CF3E759F8047B761C307848
:101E00006C280FD006DC4C2817D068280DD06A2823
:101E100014D104E0742810D07A280FD10DE044F4D6
:101E200000140AE044F4801401E044F44014727891
:101E3000824202D104F58014761C761C3078662824
:101E40000BD013DC582877D009DC002875D0452842
:101E5000F6D04628F4D047281AD19DE118E063282F
:101E600035D0642879D0652812D195E1702873D0D7
:101E700008DC6728F1D069286FD06E280DD06F2854
:101E800006D1B5E073282CD0752875D0782874D089
:101E90005A46179990476D1C75E1C4F30250022809
:101EA00009D003280DD0D9F8001004280DD00D60FA
:101EB00009F1040967E1D9F80010EA17C1E90052F5
:101EC000F6E7D9F800100D80F2E70D70F0E719F889
:101ED000041B8DF8001000208DF80100EA46012057
:101EE00003E059F804AB4FF0FF3061074FF00001F9
:101EF00002D40DE008F101018846B9420FDA8045AD
:101F0000F8DB1AF808100029F4D108E008F1010103
:101F100088468142FADB1AF808100029F6D10598A4
:101F20005B46A0EB080721463846179A00F094FA62
:101F3000284400EB080507E04DE029E10DE01AF820
:101F4000010B5A4617999047B8F10108F7D25B4642
:101F500021463846179A13E142E00A220092C4F360
:101F600002524FF0000A022A08D059F804CB032A83
:101F70004FEAEC710AD00DE029E02AE009F10701EF
:101F800021F00702F2E802C1914609E00FFA8CFC49
:101F90004FEAEC71042A03D14FFA8CFC4FEAEC7142
:101FA000002907DA0A460021DCF1000C61EB02018E
:101FB0002D2202E0220504D52B228DF804200122D7
:101FC00003E0E20701D02022F7E7904659E00A211A
:101FD00002E010220DE010214FF0000A00910BE00A
:101FE00010224FF0000A44F004040827009203E096
:101FF00008224FF0000A0092C4F30252022A05D0D0
:1020000059F804CB0021032A08D009E009F107019F
:1020100021F00702F2E802C1914605E01FFA8CFCAC
:10202000042A01D10CF0FF0C4FF00008220728D53C
:10203000702806D0009B83F0100353EA0A0305D0F2
:102040000EE040228DF80420012208E05CEA010243
:1020500006D030228DF804208DF80500022290462B
:10206000009B83F0080353EA0A030AD15CEA0102E9
:1020700001D1620705D530228DF804204FF0010808
:102080007F1E582804D034A003900EA802900DE0C3
:1020900036A0F9E753466046009AFEF791F8844669
:1020A0000398825C0298401E029002705CEA010074
:1020B000F0D1029806A9081A00F1200A600702D59B
:1020C00024F4803400E00127574502DDA7EB0A0025
:1020D00000E0002000EB0A01009005984144401AFE
:1020E0000590E00306D45B462146179A059800F058
:1020F000B3F90544002706E001A85A46C05D1799C8
:1021000090476D1C7F1C4745F6DBE0030CD55B4612
:102110002146179A059800F09FF9054404E0302005
:102120005A46179990476D1C0099481E0090002947
:10213000F5DC08E0029802995A460078491C0291A1
:10214000179990476D1CBAF10001AAF1010AF1DC60
:1021500065E100000928010030313233343536376B
:1021600038396162636465660000000030313233E3
:102170003435363738394142434445460000000083
:1021800000F058F90544761C307800287FF4ECAD57
:1021900019B02846BDE8F08F620700D4062709F180
:1021A000070222F0070CFCE80223E14603F0004896
:1021B0005FEA080C02D00FF2702C0DE05FEA045CBD
:1021C00002D50FF2682C07E05FEAC47C02D00FF260
:1021D000602C01E0AFF2700C4FF0FF3823F00043A9
:1021E000CDF850C065280CD006DC452809D046281B
:1021F0001DD047283DD13DE0662818D067287ED104
:1022000038E00021112F01DB112000E0781CCDE91E
:10221000000106A90EA8FFF7DDFCDDE90F010E9A0B
:1022200003910021009207F1010A04914DE04FF063
:1022300000400097CDE9011006A90EA8FFF7CAFCDF
:10224000DDE90F0203920E9B11990022DDF80CA02C
:102250000093049211B9791C00EB010AB7EB0A0054
:1022600004D4C0F1FF3007F1010A0490AAEB070083
:10227000019044E0012F00DA01270021112F01DD38
:10228000112000E03846CDE9000106A90EA8FFF7AD
:10229000A1FCDDE90F010E9A039100210491009247
:1022A000BA4621070CD40399514500DA8A46BAF19F
:1022B000010F05DD009AAAF10101515C302908D017
:1022C000B84202DA10F1040F06DA0121CDE901105B
:1022D00015E0AAF10101E9E7002805DC04990144B1
:1022E0000491AAEB000102E0411C514500DD8A4641
:1022F0000499401A401C01904FF0004002902007C2
:1023000004D40198504501DBCDF8048000208DF8FD
:102310004F0002980DF14F07B0F1004F25D02B2050
:102320000E9002984FF0020800280CDA404202900A
:102330002D200E9007E00A210298FEF736F8303182
:10234000029007F8011DB8F10001A8F10108F2DCC4
:1023500002980028EFD1791E0E980870307800F0AE
:10236000200040F0450007F8020D12A8C01B00F144
:1023700007081498007800B1012000EB0A010198C9
:1023800001EBE07105984144401A401E0590E003BE
:1023900006D45B462146179A059800F05DF805447F
:1023A0001498007818B15A46179990476D1CE003AD
:1023B00024D55B462146179A059800F04DF8054450
:1023C0001CE00498002807DBDDE90301884203DDF7
:1023D0000098405C179901E0179930205A469047C1
:1023E000049805F10105401C04900198401E0190DD
:1023F00004D12E205A46179990476D1CBAF100015E
:10240000AAF1010ADDDC05E017F8010B5A4617991D
:1024100090476D1CB8F10001A8F10108F4DC5B469F
:102420002146179A0598ABE62D0000002B0000000E
:10243000200000002DE9F041044600251E46174605
:10244000880404D405E039462020B0476D1C641E82
:10245000F9D52846BDE8F0812DE9F0410446002574
:102460001E469046C80301D5302700E02027880487
:1024700004D505E041463846B0476D1C641EF9D5C9
:102480002846BDE8F08138B504468DF8000069465D
:102490000320ABBE204638BD2DED028B82B0FEF787
:1024A000F1FDFFF71FFBFFF7E9FA284826494FF433
:1024B000804201602649416000218160C0E9031229
:1024C00041618161C1610162FEF79EFA214C0A23DC
:1024D000022221781D48FEF75BFB10B91EA0FFF712
:1024E00049FB15208DF804008DF80500D7212170D7
:1024F0006425012301AA15480095FEF7EFFC9FED26
:10250000188B0095022301AA21781048FEF7F6FBEC
:102510009DF80400C10BC90701D0A0F58030FDF77C
:1025200004FF53EC182BFDF78EFEFDF722FFFDF79D
:102530000DFF41EC100B0CA053EC102BFFF71AFB16
:102540001E20FEF767F9DCE7005800401800002065
:10255000A0860100000000206F6B206F6B2021001F
:10256000000000000000803F25660A000000000017
:102570000000000001020304060708090000000033
:1025800001020304A4250008000000201800000038
:10259000B41B0008BC2500081800002058040000E7
:1025A000C41B0008900000000100000010000000A3
:0C25B000000000000024F4000000000007
:040000050800018965
:00000001FF
